{
  "contractName": "NftPaper",
  "abi": [
    {
      "inputs": [],
      "stateMutability": "nonpayable",
      "type": "constructor"
    },
    {
      "anonymous": false,
      "inputs": [
        {
          "indexed": true,
          "internalType": "address",
          "name": "_owner",
          "type": "address"
        },
        {
          "indexed": true,
          "internalType": "address",
          "name": "_approved",
          "type": "address"
        },
        {
          "indexed": true,
          "internalType": "uint256",
          "name": "_tokenId",
          "type": "uint256"
        }
      ],
      "name": "Approval",
      "type": "event"
    },
    {
      "anonymous": false,
      "inputs": [
        {
          "indexed": true,
          "internalType": "address",
          "name": "_from",
          "type": "address"
        },
        {
          "indexed": true,
          "internalType": "address",
          "name": "_to",
          "type": "address"
        },
        {
          "indexed": true,
          "internalType": "uint256",
          "name": "_tokenId",
          "type": "uint256"
        }
      ],
      "name": "Transfer",
      "type": "event"
    },
    {
      "inputs": [
        {
          "internalType": "address",
          "name": "_owner",
          "type": "address"
        }
      ],
      "name": "balanceOf",
      "outputs": [
        {
          "internalType": "uint256",
          "name": "",
          "type": "uint256"
        }
      ],
      "stateMutability": "view",
      "type": "function",
      "constant": true
    },
    {
      "inputs": [],
      "name": "name",
      "outputs": [
        {
          "internalType": "string",
          "name": "",
          "type": "string"
        }
      ],
      "stateMutability": "view",
      "type": "function",
      "constant": true
    },
    {
      "inputs": [
        {
          "internalType": "uint256",
          "name": "",
          "type": "uint256"
        }
      ],
      "name": "nftPapers",
      "outputs": [
        {
          "internalType": "string",
          "name": "",
          "type": "string"
        }
      ],
      "stateMutability": "view",
      "type": "function",
      "constant": true
    },
    {
      "inputs": [
        {
          "internalType": "uint256",
          "name": "_tokenId",
          "type": "uint256"
        }
      ],
      "name": "ownerOf",
      "outputs": [
        {
          "internalType": "address",
          "name": "",
          "type": "address"
        }
      ],
      "stateMutability": "view",
      "type": "function",
      "constant": true
    },
    {
      "inputs": [],
      "name": "studentNumber",
      "outputs": [
        {
          "internalType": "string",
          "name": "",
          "type": "string"
        }
      ],
      "stateMutability": "view",
      "type": "function",
      "constant": true
    },
    {
      "inputs": [
        {
          "internalType": "bytes4",
          "name": "interfaceID",
          "type": "bytes4"
        }
      ],
      "name": "supportsInterface",
      "outputs": [
        {
          "internalType": "bool",
          "name": "",
          "type": "bool"
        }
      ],
      "stateMutability": "view",
      "type": "function",
      "constant": true
    },
    {
      "inputs": [
        {
          "internalType": "uint256",
          "name": "index",
          "type": "uint256"
        }
      ],
      "name": "tokenByIndex",
      "outputs": [
        {
          "internalType": "uint256",
          "name": "",
          "type": "uint256"
        }
      ],
      "stateMutability": "view",
      "type": "function",
      "constant": true
    },
    {
      "inputs": [
        {
          "internalType": "address",
          "name": "owner",
          "type": "address"
        },
        {
          "internalType": "uint256",
          "name": "index",
          "type": "uint256"
        }
      ],
      "name": "tokenOfOwnerByIndex",
      "outputs": [
        {
          "internalType": "uint256",
          "name": "",
          "type": "uint256"
        }
      ],
      "stateMutability": "view",
      "type": "function",
      "constant": true
    },
    {
      "inputs": [],
      "name": "totalSupply",
      "outputs": [
        {
          "internalType": "uint256",
          "name": "",
          "type": "uint256"
        }
      ],
      "stateMutability": "view",
      "type": "function",
      "constant": true
    },
    {
      "inputs": [
        {
          "internalType": "address",
          "name": "_from",
          "type": "address"
        },
        {
          "internalType": "address",
          "name": "_to",
          "type": "address"
        },
        {
          "internalType": "uint256",
          "name": "_tokenId",
          "type": "uint256"
        }
      ],
      "name": "transferFrom",
      "outputs": [],
      "stateMutability": "nonpayable",
      "type": "function"
    },
    {
      "inputs": [
        {
          "internalType": "string",
          "name": "_nftPaper",
          "type": "string"
        }
      ],
      "name": "mint",
      "outputs": [],
      "stateMutability": "nonpayable",
      "type": "function"
    }
  ],
  "bytecode": "0x60806040523480156200001157600080fd5b506040518060400160405280600c81526020017f5365756e675f47695f4b696d00000000000000000000000000000000000000008152506040518060400160405280600a81526020017f32303137333134323433000000000000000000000000000000000000000000008152508181620000b17f01ffc9a7a5cef8baa21ed3c5c0d7e23accb804b619e9333b597f47a0d84076e26200021c60201b60201c565b620001047f13b182f4c0e5b2efbac0efe6cf6d756c8b89f4b79c5707a043ed9ea740574ee97f7feaf19471f34a12a7eaf32d5f3090aa2260ea8624dc8a138e74e0bf0f623076186200021c60201b60201c565b81600190816200011591906200056d565b5080600290816200012791906200056d565b5050506200019f7f22c82707ba960a14c7592ffb6b8cfaa073fed0048a84cc7fa41f6b5bd8e7f2e47f3a6eb71757dfc6e784c1459d26270140c2c147d95ca985c80026fc5301c3eca17f8a7e378434598edc36d108689a030cbc9d7d465de4f74c71bae1028eed6a881b18186200021c60201b60201c565b620002147f8230223f691b981717299fae9549350a0d894555723531f02108b1f522c1a7977f6da5e1284143cdd2d15038a59bde3be031250f00291d64494c12d967b3a4e0c37fc53637662700e6c65104059db8bba34439e0c32483ab7c34e3ccae52c739549518186200021c60201b60201c565b5050620006d7565b63ffffffff60e01b817bffffffffffffffffffffffffffffffffffffffffffffffffffffffff19160362000287576040517f08c379a00000000000000000000000000000000000000000000000000000000081526004016200027e90620006b5565b60405180910390fd5b6001600080837bffffffffffffffffffffffffffffffffffffffffffffffffffffffff19167bffffffffffffffffffffffffffffffffffffffffffffffffffffffff1916815260200190815260200160002060006101000a81548160ff02191690831515021790555050565b600081519050919050565b7f4e487b7100000000000000000000000000000000000000000000000000000000600052604160045260246000fd5b7f4e487b7100000000000000000000000000000000000000000000000000000000600052602260045260246000fd5b600060028204905060018216806200037557607f821691505b6020821081036200038b576200038a6200032d565b5b50919050565b60008190508160005260206000209050919050565b60006020601f8301049050919050565b600082821b905092915050565b600060088302620003f57fffffffffffffffffffffffffffffffffffffffffffffffffffffffffffffffff82620003b6565b620004018683620003b6565b95508019841693508086168417925050509392505050565b6000819050919050565b6000819050919050565b60006200044e62000448620004428462000419565b62000423565b62000419565b9050919050565b6000819050919050565b6200046a836200042d565b62000482620004798262000455565b848454620003c3565b825550505050565b600090565b620004996200048a565b620004a68184846200045f565b505050565b5b81811015620004ce57620004c26000826200048f565b600181019050620004ac565b5050565b601f8211156200051d57620004e78162000391565b620004f284620003a6565b8101602085101562000502578190505b6200051a6200051185620003a6565b830182620004ab565b50505b505050565b600082821c905092915050565b6000620005426000198460080262000522565b1980831691505092915050565b60006200055d83836200052f565b9150826002028217905092915050565b6200057882620002f3565b67ffffffffffffffff811115620005945762000593620002fe565b5b620005a082546200035c565b620005ad828285620004d2565b600060209050601f831160018114620005e55760008415620005d0578287015190505b620005dc85826200054f565b8655506200064c565b601f198416620005f58662000391565b60005b828110156200061f57848901518255600182019150602085019450602081019050620005f8565b868310156200063f57848901516200063b601f8916826200052f565b8355505b6001600288020188555050505b505050505050565b600082825260208201905092915050565b7f496e76616c696420696e74657266616365207265717565737400000000000000600082015250565b60006200069d60198362000654565b9150620006aa8262000665565b602082019050919050565b60006020820190508181036000830152620006d0816200068e565b9050919050565b611ab280620006e76000396000f3fe608060405234801561001057600080fd5b50600436106100a95760003560e01c8063484a0d4111610071578063484a0d41146101665780634f6ccce7146101845780636352211e146101b457806370a08231146101e4578063d85d3d2714610214578063ffb11e9c14610230576100a9565b806301ffc9a7146100ae57806306fdde03146100de57806318160ddd146100fc57806323b872dd1461011a5780632f745c5914610136575b600080fd5b6100c860048036038101906100c39190610e4b565b610260565b6040516100d59190610e93565b60405180910390f35b6100e66102c7565b6040516100f39190610f3e565b60405180910390f35b610104610359565b6040516101119190610f79565b60405180910390f35b610134600480360381019061012f919061101e565b610366565b005b610150600480360381019061014b9190611071565b610376565b60405161015d9190610f79565b60405180910390f35b61016e610426565b60405161017b9190610f3e565b60405180910390f35b61019e600480360381019061019991906110b1565b6104b8565b6040516101ab9190610f79565b60405180910390f35b6101ce60048036038101906101c991906110b1565b610529565b6040516101db91906110ed565b60405180910390f35b6101fe60048036038101906101f99190611108565b6105da565b60405161020b9190610f79565b60405180910390f35b61022e6004803603810190610229919061126a565b610691565b005b61024a600480360381019061024591906110b1565b61078d565b6040516102579190610f3e565b60405180910390f35b6000806000837bffffffffffffffffffffffffffffffffffffffffffffffffffffffff19167bffffffffffffffffffffffffffffffffffffffffffffffffffffffff1916815260200190815260200160002060009054906101000a900460ff169050919050565b6060600180546102d6906112e2565b80601f0160208091040260200160405190810160405280929190818152602001828054610302906112e2565b801561034f5780601f106103245761010080835404028352916020019161034f565b820191906000526020600020905b81548152906001019060200180831161033257829003601f168201915b5050505050905090565b6000600680549050905090565b610371838383610839565b505050565b6000610381836105da565b82106103c2576040517f08c379a00000000000000000000000000000000000000000000000000000000081526004016103b99061135f565b60405180910390fd5b600860008473ffffffffffffffffffffffffffffffffffffffff1673ffffffffffffffffffffffffffffffffffffffff16815260200190815260200160002082815481106104135761041261137f565b5b9060005260206000200154905092915050565b606060028054610435906112e2565b80601f0160208091040260200160405190810160405280929190818152602001828054610461906112e2565b80156104ae5780601f10610483576101008083540402835291602001916104ae565b820191906000526020600020905b81548152906001019060200180831161049157829003601f168201915b5050505050905090565b60006104c2610359565b8210610503576040517f08c379a00000000000000000000000000000000000000000000000000000000081526004016104fa906113fa565b60405180910390fd5b600682815481106105175761051661137f565b5b90600052602060002001549050919050565b6000806003600084815260200190815260200160002060009054906101000a900473ffffffffffffffffffffffffffffffffffffffff169050600073ffffffffffffffffffffffffffffffffffffffff168173ffffffffffffffffffffffffffffffffffffffff16036105d1576040517f08c379a00000000000000000000000000000000000000000000000000000000081526004016105c890611466565b60405180910390fd5b80915050919050565b60008073ffffffffffffffffffffffffffffffffffffffff168273ffffffffffffffffffffffffffffffffffffffff160361064a576040517f08c379a000000000000000000000000000000000000000000000000000000000815260040161064190611466565b60405180910390fd5b600460008373ffffffffffffffffffffffffffffffffffffffff1673ffffffffffffffffffffffffffffffffffffffff168152602001908152602001600020549050919050565b600b816040516106a191906114c2565b908152602001604051809103902060009054906101000a900460ff16156106fd576040517f08c379a00000000000000000000000000000000000000000000000000000000081526004016106f49061154b565b60405180910390fd5b600a819080600181540180825580915050600190039060005260206000200160009091909190915090816107319190611717565b5060006001600a805490506107469190611818565b90506107523382610a7e565b6001600b8360405161076491906114c2565b908152602001604051809103902060006101000a81548160ff0219169083151502179055505050565b600a818154811061079d57600080fd5b9060005260206000200160009150905080546107b8906112e2565b80601f01602080910402602001604051908101604052809291908181526020018280546107e4906112e2565b80156108315780601f1061080657610100808354040283529160200191610831565b820191906000526020600020905b81548152906001019060200180831161081457829003601f168201915b505050505081565b600073ffffffffffffffffffffffffffffffffffffffff168273ffffffffffffffffffffffffffffffffffffffff16036108a8576040517f08c379a000000000000000000000000000000000000000000000000000000000815260040161089f90611898565b60405180910390fd5b8273ffffffffffffffffffffffffffffffffffffffff166108c882610529565b73ffffffffffffffffffffffffffffffffffffffff161461091e576040517f08c379a00000000000000000000000000000000000000000000000000000000081526004016109159061192a565b60405180910390fd5b6001600460008573ffffffffffffffffffffffffffffffffffffffff1673ffffffffffffffffffffffffffffffffffffffff168152602001908152602001600020600082825461096e9190611818565b925050819055506001600460008473ffffffffffffffffffffffffffffffffffffffff1673ffffffffffffffffffffffffffffffffffffffff16815260200190815260200160002060008282546109c5919061194a565b92505081905550816003600083815260200190815260200160002060006101000a81548173ffffffffffffffffffffffffffffffffffffffff021916908373ffffffffffffffffffffffffffffffffffffffff160217905550808273ffffffffffffffffffffffffffffffffffffffff168473ffffffffffffffffffffffffffffffffffffffff167fddf252ad1be2c89b69c2b068fc378daa952ba7f163c4a11628f55a4df523b3ef60405160405180910390a4505050565b610a888282610a9f565b610a9181610c60565b610a9b8282610ca9565b5050565b600073ffffffffffffffffffffffffffffffffffffffff168273ffffffffffffffffffffffffffffffffffffffff1603610b0e576040517f08c379a0000000000000000000000000000000000000000000000000000000008152600401610b05906119f0565b60405180910390fd5b610b1781610d6d565b15610b57576040517f08c379a0000000000000000000000000000000000000000000000000000000008152600401610b4e90611a5c565b60405180910390fd5b816003600083815260200190815260200160002060006101000a81548173ffffffffffffffffffffffffffffffffffffffff021916908373ffffffffffffffffffffffffffffffffffffffff1602179055506001600460008473ffffffffffffffffffffffffffffffffffffffff1673ffffffffffffffffffffffffffffffffffffffff1681526020019081526020016000206000828254610bf9919061194a565b92505081905550808273ffffffffffffffffffffffffffffffffffffffff16600073ffffffffffffffffffffffffffffffffffffffff167fddf252ad1be2c89b69c2b068fc378daa952ba7f163c4a11628f55a4df523b3ef60405160405180910390a45050565b6006805490506007600083815260200190815260200160002081905550600681908060018154018082558091505060019003906000526020600020016000909190919091505550565b600860008373ffffffffffffffffffffffffffffffffffffffff1673ffffffffffffffffffffffffffffffffffffffff168152602001908152602001600020805490506009600083815260200190815260200160002081905550600860008373ffffffffffffffffffffffffffffffffffffffff1673ffffffffffffffffffffffffffffffffffffffff1681526020019081526020016000208190806001815401808255809150506001900390600052602060002001600090919091909150555050565b6000806003600084815260200190815260200160002060009054906101000a900473ffffffffffffffffffffffffffffffffffffffff169050600073ffffffffffffffffffffffffffffffffffffffff168173ffffffffffffffffffffffffffffffffffffffff161415915050919050565b6000604051905090565b600080fd5b600080fd5b60007fffffffff0000000000000000000000000000000000000000000000000000000082169050919050565b610e2881610df3565b8114610e3357600080fd5b50565b600081359050610e4581610e1f565b92915050565b600060208284031215610e6157610e60610de9565b5b6000610e6f84828501610e36565b91505092915050565b60008115159050919050565b610e8d81610e78565b82525050565b6000602082019050610ea86000830184610e84565b92915050565b600081519050919050565b600082825260208201905092915050565b60005b83811015610ee8578082015181840152602081019050610ecd565b60008484015250505050565b6000601f19601f8301169050919050565b6000610f1082610eae565b610f1a8185610eb9565b9350610f2a818560208601610eca565b610f3381610ef4565b840191505092915050565b60006020820190508181036000830152610f588184610f05565b905092915050565b6000819050919050565b610f7381610f60565b82525050565b6000602082019050610f8e6000830184610f6a565b92915050565b600073ffffffffffffffffffffffffffffffffffffffff82169050919050565b6000610fbf82610f94565b9050919050565b610fcf81610fb4565b8114610fda57600080fd5b50565b600081359050610fec81610fc6565b92915050565b610ffb81610f60565b811461100657600080fd5b50565b60008135905061101881610ff2565b92915050565b60008060006060848603121561103757611036610de9565b5b600061104586828701610fdd565b935050602061105686828701610fdd565b925050604061106786828701611009565b9150509250925092565b6000806040838503121561108857611087610de9565b5b600061109685828601610fdd565b92505060206110a785828601611009565b9150509250929050565b6000602082840312156110c7576110c6610de9565b5b60006110d584828501611009565b91505092915050565b6110e781610fb4565b82525050565b600060208201905061110260008301846110de565b92915050565b60006020828403121561111e5761111d610de9565b5b600061112c84828501610fdd565b91505092915050565b600080fd5b600080fd5b7f4e487b7100000000000000000000000000000000000000000000000000000000600052604160045260246000fd5b61117782610ef4565b810181811067ffffffffffffffff821117156111965761119561113f565b5b80604052505050565b60006111a9610ddf565b90506111b5828261116e565b919050565b600067ffffffffffffffff8211156111d5576111d461113f565b5b6111de82610ef4565b9050602081019050919050565b82818337600083830152505050565b600061120d611208846111ba565b61119f565b9050828152602081018484840111156112295761122861113a565b5b6112348482856111eb565b509392505050565b600082601f83011261125157611250611135565b5b81356112618482602086016111fa565b91505092915050565b6000602082840312156112805761127f610de9565b5b600082013567ffffffffffffffff81111561129e5761129d610dee565b5b6112aa8482850161123c565b91505092915050565b7f4e487b7100000000000000000000000000000000000000000000000000000000600052602260045260246000fd5b600060028204905060018216806112fa57607f821691505b60208210810361130d5761130c6112b3565b5b50919050565b7f6f776e657220696e646578206973206f7574206f662072616e67650000000000600082015250565b6000611349601b83610eb9565b915061135482611313565b602082019050919050565b600060208201905081810360008301526113788161133c565b9050919050565b7f4e487b7100000000000000000000000000000000000000000000000000000000600052603260045260246000fd5b7f676c6f62616c20696e646578206973206f7574206f662072616e676500000000600082015250565b60006113e4601c83610eb9565b91506113ef826113ae565b602082019050919050565b60006020820190508181036000830152611413816113d7565b9050919050565b7f6f776e657220717565727920666f72206e6f6e2d6578697374656e7420000000600082015250565b6000611450601d83610eb9565b915061145b8261141a565b602082019050919050565b6000602082019050818103600083015261147f81611443565b9050919050565b600081905092915050565b600061149c82610eae565b6114a68185611486565b93506114b6818560208601610eca565b80840191505092915050565b60006114ce8284611491565b915081905092915050565b7f4572726f72202d20506170657220697320616c7265616479207075626c69736860008201527f6564000000000000000000000000000000000000000000000000000000000000602082015250565b6000611535602283610eb9565b9150611540826114d9565b604082019050919050565b6000602082019050818103600083015261156481611528565b9050919050565b60008190508160005260206000209050919050565b60006020601f8301049050919050565b600082821b905092915050565b6000600883026115cd7fffffffffffffffffffffffffffffffffffffffffffffffffffffffffffffffff82611590565b6115d78683611590565b95508019841693508086168417925050509392505050565b6000819050919050565b600061161461160f61160a84610f60565b6115ef565b610f60565b9050919050565b6000819050919050565b61162e836115f9565b61164261163a8261161b565b84845461159d565b825550505050565b600090565b61165761164a565b611662818484611625565b505050565b5b818110156116865761167b60008261164f565b600181019050611668565b5050565b601f8211156116cb5761169c8161156b565b6116a584611580565b810160208510156116b4578190505b6116c86116c085611580565b830182611667565b50505b505050565b600082821c905092915050565b60006116ee600019846008026116d0565b1980831691505092915050565b600061170783836116dd565b9150826002028217905092915050565b61172082610eae565b67ffffffffffffffff8111156117395761173861113f565b5b61174382546112e2565b61174e82828561168a565b600060209050601f831160018114611781576000841561176f578287015190505b61177985826116fb565b8655506117e1565b601f19841661178f8661156b565b60005b828110156117b757848901518255600182019150602085019450602081019050611792565b868310156117d457848901516117d0601f8916826116dd565b8355505b6001600288020188555050505b505050505050565b7f4e487b7100000000000000000000000000000000000000000000000000000000600052601160045260246000fd5b600061182382610f60565b915061182e83610f60565b9250828203905081811115611846576118456117e9565b5b92915050565b7f4572726f72202d207472616e7366657220746f207a65726f2061646472657373600082015250565b6000611882602083610eb9565b915061188d8261184c565b602082019050919050565b600060208201905081810360008301526118b181611875565b9050919050565b7f547279696e6720746f207472616e73666572206120746f6b656e20746865206160008201527f64647265737320646f6573206e6f74206f776e00000000000000000000000000602082015250565b6000611914603383610eb9565b915061191f826118b8565b604082019050919050565b6000602082019050818103600083015261194381611907565b9050919050565b600061195582610f60565b915061196083610f60565b9250828201905080821115611978576119776117e9565b5b92915050565b7f4552433732313a206d696e74696e6720746f20746865207a65726f206164647260008201527f6573730000000000000000000000000000000000000000000000000000000000602082015250565b60006119da602383610eb9565b91506119e58261197e565b604082019050919050565b60006020820190508181036000830152611a09816119cd565b9050919050565b7f4552433732313a20746f6b656e20616c72656164792065786973747300000000600082015250565b6000611a46601c83610eb9565b9150611a5182611a10565b602082019050919050565b60006020820190508181036000830152611a7581611a39565b905091905056fea26469706673582212207582194369aa205e4327ab673ac97991fd14157ecda3a5bea942a669e883e70064736f6c63430008130033",
  "immutableReferences": {},
  "source": "// SPDX-License-Identifier: MIT\npragma solidity ^0.8.0;\n\nimport './ERC721Connector.sol';\n\ncontract NftPaper is ERC721Connector {\n\n\n    /*\n    const minterName = \"OO University\";\n    const awardeeName = \"Student \";\n    const awardInfo = \"default award\";\n    const awardedDate = \"2023-01-01\";\n    const imageURL = \"default URL for ipfs must be here\";\n    const counter = 5;\n    */\n\n\n\n     string [] public nftPapers;\n\n    mapping(string => bool) _nftPapersExists;\n\n    function mint(string memory _nftPaper) public {\n\n        require(!_nftPapersExists[_nftPaper],\n        'Error - Paper is already published');\n        // this is deprecated - uint _id = KryptoBirdz.push(_nftPaper);\n        nftPapers.push(_nftPaper);\n        uint _id = nftPapers.length - 1;\n\n        // .push no longer returns the length but a ref to the added element\n        _mint(msg.sender, _id);\n\n        _nftPapersExists[_nftPaper] = true;\n\n    }\n\n    constructor() ERC721Connector('Seung_Gi_Kim','2017314243') {\n    }\n    \n\n}",
  "sourcePath": "/Users/snp/Desktop//grad/Undergraduate/SKKU_undergraduate_thesis_SeungGiKim/main/src/contracts/NftPapers.sol",
  "compiler": {
    "name": "solc",
    "version": "0.8.19+commit.7dd6d404.Emscripten.clang"
  },
  "schemaVersion": "3.4.13",
  "updatedAt": "2023-04-18T08:03:35.700Z",
  "networkType": "ethereum",
  "devdoc": {
    "kind": "dev",
    "methods": {},
    "version": 1
  },
  "userdoc": {
    "kind": "user",
    "methods": {},
    "version": 1
  }
}